:100000000C9438000C946C020C946C020C946C02EE
:100010000C946C020C946C020C946C020C946C02A8
:100020000C946C020C946C020C946C020C946C0298
:100030000C946C020C946C020C946C020C946C0288
:100040000C946C020C946C020C946C020C946C0278
:100050000C946C020C946C020C946C020C946C0268
:100060000C946C020C946C02010001120004DC0080
:1000700011241FBECFEFD8E0DEBFCDBFE8E6F0E031
:1000800040E017C0B591A59135912591059107FDE7
:100090000CC095918591EF01F92FE82F05900D92F5
:1000A000A217B307D9F7FE0104C01D92A217B30728
:1000B000E1F7EF36F40731F70E9462000C9460001C
:0400C000F894FFCFE2
:1000C400CF93DF93CDB7DEB72E970FB6F894DEBF8C
:1000D4000FBECDBF0E94EA0084E290E020E1FC0163
:1000E400208380E091E00E94320180E090E0AAEF5A
:1000F400B3E489839A83AB83BC8320E030E04AE78E
:1001040055E469817A818B819C810E946502DC01BE
:10011400CB018D839E83AF83B88720E030E040E835
:100124005FE36D817E818F8198850E945B028823C5
:100134002CF481E090E09A8789873FC020E03FEF6C
:100144004FE757E46D817E818F8198850E9460021C
:1001540018164CF520E030E040E251E469817A81E0
:100164008B819C810E946502DC01CB01BC01CD0125
:100174000E94BA01DC01CB019A8789870FC080E90C
:1001840091E09C878B878B859C850197F1F79C87F1
:100194008B8789859A8501979A87898789859A8526
:1001A400892B69F714C06D817E818F8198850E94A7
:1001B400BA01DC01CB019A87898789859A859E8754
:1001C4008D878D859E850197F1F79E878D8789CFD1
:1001D400CF93DF93CDB7DEB785EC90E0FC011082BE
:1001E40084EC90E027E6FC01208381EC90E028E198
:1001F400FC01208382EC90E026E0FC0120830000D7
:10020400DF91CF910895CF93DF93CDB7DEB7000090
:1002140080EC90E0FC0180818823D4F786EC90E0A8
:10022400FC018081DF91CF910895CF93DF931F92DA
:10023400CDB7DEB78983000080EC90E0FC018081BB
:10024400882F90E080729927892BB1F386EC90E097
:100254002981FC01208300000F90DF91CF91089544
:10026400CF93DF9300D0CDB7DEB79A8389830BC0D9
:1002740089819A81FC0180810E94170189819A8178
:1002840001969A83898389819A81FC0180818823DC
:0E02940079F700000F900F90DF91CF91089541
:1002A2000E94470238F00E944E0220F0952311F07E
:1002B2000C9455020C94690211240C9441020E9480
:1002C2000D0270F3959FC1F3950F50E0551F629F89
:1002D200F001729FBB27F00DB11D639FAA27F00D9D
:1002E200B11DAA1F649F6627B00DA11D661F829FC4
:1002F2002227B00DA11D621F739FB00DA11D621FA9
:10030200839FA00D611D221F749F3327A00D611DC5
:10031200231F849F600D211D822F762F6A2F1124A7
:100322009F5750409AF0F1F088234AF0EE0FFF1FDA
:10033200BB1F661F771F881F91505040A9F79E3F31
:10034200510580F00C9455020C9441025F3FE4F396
:10035200983ED4F3869577956795B795F795E79587
:100362009F5FC1F7FE2B880F911D9695879597F990
:020372000895EC
:100374000E94150288F09F5798F0B92F9927B7511A
:10038400B0F0E1F0660F771F881F991F1AF0BA9535
:10039400C9F714C0B13091F00E944002B1E0089551
:1003A4000C944002672F782F8827B85F39F0B93F43
:1003B400CCF3869577956795B395D9F73EF49095E8
:0E03C4008095709561957F4F8F4F9F4F0895E4
:1003D200990F0008550FAA0BE0E8FEEF1616170654
:1003E200E807F907C0F012161306E407F50798F0BC
:1003F200621B730B840B950B39F40A2661F0232BD5
:10040200242B252B21F408950A2609F4A140A69550
:080412008FEF811D811D08958B
:10041A0057FD9058440F551F59F05F3F71F04795AB
:10042A00880F97FB991F61F09F3F79F08795089590
:10043A00121613061406551FF2CF4695F1DF08C0AF
:10044A00161617061806991FF1CF869571056105CC
:04045A000894089565
:10045E00092E0394000C11F4882352F0BB0F40F4C4
:10046E00BF2B11F460FF04C06F5F7F4F8F4F9F4F04
:02047E000895DF
:0E048000E894BB2766277727CB0197F90895EC
:0E048E0000240A94161617061806090608958B
:0E049C0000240A94121613061406050608958D
:0C04AA0097F99F6780E870E060E008951B
:0A04B6000E94E90108F481E00895B6
:0A04C0000E94E90108F48FEF08958F
:0804CA000E9460010C942F0256
:0604D2009FEF80EC08958D
:0404D8000C94000080
:1004DC003235353078303032353530783030323561
:0204EC003500D9
:00000001FF
